{
  "_format": "hh-sol-artifact-1",
  "contractName": "WavePortal",
  "sourceName": "contracts/WavePortal.sol",
  "abi": [
    {
      "inputs": [],
      "stateMutability": "payable",
      "type": "constructor"
    },
    {
      "anonymous": false,
      "inputs": [
        {
          "indexed": true,
          "internalType": "address",
          "name": "from",
          "type": "address"
        },
        {
          "indexed": false,
          "internalType": "uint256",
          "name": "timestamp",
          "type": "uint256"
        },
        {
          "indexed": false,
          "internalType": "uint256",
          "name": "amountEarned",
          "type": "uint256"
        },
        {
          "indexed": false,
          "internalType": "string",
          "name": "message",
          "type": "string"
        }
      ],
      "name": "newWave",
      "type": "event"
    },
    {
      "inputs": [],
      "name": "getTotalWaves",
      "outputs": [
        {
          "internalType": "uint256",
          "name": "",
          "type": "uint256"
        }
      ],
      "stateMutability": "view",
      "type": "function"
    },
    {
      "inputs": [],
      "name": "getWaves",
      "outputs": [
        {
          "components": [
            {
              "internalType": "address",
              "name": "waver",
              "type": "address"
            },
            {
              "internalType": "string",
              "name": "message",
              "type": "string"
            },
            {
              "internalType": "uint256",
              "name": "amountEarned",
              "type": "uint256"
            },
            {
              "internalType": "uint256",
              "name": "timestamp",
              "type": "uint256"
            }
          ],
          "internalType": "struct WavePortal.Wave[]",
          "name": "",
          "type": "tuple[]"
        }
      ],
      "stateMutability": "view",
      "type": "function"
    },
    {
      "inputs": [
        {
          "internalType": "address",
          "name": "",
          "type": "address"
        }
      ],
      "name": "lastWavedAt",
      "outputs": [
        {
          "internalType": "uint256",
          "name": "",
          "type": "uint256"
        }
      ],
      "stateMutability": "view",
      "type": "function"
    },
    {
      "inputs": [
        {
          "internalType": "string",
          "name": "_message",
          "type": "string"
        }
      ],
      "name": "wave",
      "outputs": [],
      "stateMutability": "nonpayable",
      "type": "function"
    }
  ],
  "bytecode": "0x60806040526200004f6040518060400160405280601d81526020017f436f6e747261637420686173206265656e20696e697469616c697a65640000008152506200005560201b620006b21760201c565b620001e9565b620000f5816040516024016200006c919062000162565b6040516020818303038152906040527f41304fac000000000000000000000000000000000000000000000000000000007bffffffffffffffffffffffffffffffffffffffffffffffffffffffff19166020820180517bffffffffffffffffffffffffffffffffffffffffffffffffffffffff8381831617835250505050620000f860201b60201c565b50565b60008151905060006a636f6e736f6c652e6c6f679050602083016000808483855afa5050505050565b60006200012e8262000186565b6200013a818562000191565b93506200014c818560208601620001a2565b6200015781620001d8565b840191505092915050565b600060208201905081810360008301526200017e818462000121565b905092915050565b600081519050919050565b600082825260208201905092915050565b60005b83811015620001c2578082015181840152602081019050620001a5565b83811115620001d2576000848401525b50505050565b6000601f19601f8301169050919050565b6112eb80620001f96000396000f3fe608060405234801561001057600080fd5b506004361061004c5760003560e01c8063449d46c0146100515780639a2cdc081461006d578063a42a46631461008b578063a9d42f7e146100bb575b600080fd5b61006b60048036038101906100669190610a94565b6100d9565b005b6100756104f4565b6040516100829190610e59565b60405180910390f35b6100a560048036038101906100a09190610a6b565b61053f565b6040516100b29190610e59565b60405180910390f35b6100c3610557565b6040516100d09190610d10565b60405180910390f35b42601e600360003373ffffffffffffffffffffffffffffffffffffffff1673ffffffffffffffffffffffffffffffffffffffff168152602001908152602001600020546101269190610f79565b10610166576040517f08c379a000000000000000000000000000000000000000000000000000000000815260040161015d90610e19565b60405180910390fd5b42600360003373ffffffffffffffffffffffffffffffffffffffff1673ffffffffffffffffffffffffffffffffffffffff1681526020019081526020016000208190555060016000808282546101bc9190610f79565b925050819055506102036040518060400160405280600881526020017f2573207761766564000000000000000000000000000000000000000000000000815250338361074b565b600080606460015442446102179190610f79565b6102219190610f79565b61022b91906110b0565b905080600181905550603281101561037c5761027c6040518060400160405280600681526020017f257320776f6e0000000000000000000000000000000000000000000000000000815250336107ea565b6000655af3107a40009050478111156102ca576040517f08c379a00000000000000000000000000000000000000000000000000000000081526004016102c190610e39565b60405180910390fd5b60003373ffffffffffffffffffffffffffffffffffffffff16826040516102f090610cfb565b60006040518083038185875af1925050503d806000811461032d576040519150601f19603f3d011682016040523d82523d6000602084013e610332565b606091505b5050905080610376576040517f08c379a000000000000000000000000000000000000000000000000000000000815260040161036d90610df9565b60405180910390fd5b81935050505b6103bb6040518060400160405280600881526020017f49206561726e656400000000000000000000000000000000000000000000000081525083610886565b600060405180608001604052803373ffffffffffffffffffffffffffffffffffffffff168152602001858152602001848152602001428152509050600281908060018154018082558091505060019003906000526020600020906004020160009091909190915060008201518160000160006101000a81548173ffffffffffffffffffffffffffffffffffffffff021916908373ffffffffffffffffffffffffffffffffffffffff160217905550602082015181600101908051906020019061048592919061094b565b50604082015181600201556060820151816003015550503373ffffffffffffffffffffffffffffffffffffffff167f1efd258d6533cafb65f40617db341569fe66f95a9af09e6468202604293019a64285876040516104e693929190610e74565b60405180910390a250505050565b60006105376040518060400160405280601681526020017f5765206861766520256420746f74616c20776176657300000000000000000000815250600054610886565b600054905090565b60036020528060005260406000206000915090505481565b60606002805480602002602001604051908101604052809291908181526020016000905b828210156106a957838290600052602060002090600402016040518060800160405290816000820160009054906101000a900473ffffffffffffffffffffffffffffffffffffffff1673ffffffffffffffffffffffffffffffffffffffff1673ffffffffffffffffffffffffffffffffffffffff1681526020016001820180546106049061104d565b80601f01602080910402602001604051908101604052809291908181526020018280546106309061104d565b801561067d5780601f106106525761010080835404028352916020019161067d565b820191906000526020600020905b81548152906001019060200180831161066057829003601f168201915b50505050508152602001600282015481526020016003820154815250508152602001906001019061057b565b50505050905090565b610748816040516024016106c69190610d32565b6040516020818303038152906040527f41304fac000000000000000000000000000000000000000000000000000000007bffffffffffffffffffffffffffffffffffffffffffffffffffffffff19166020820180517bffffffffffffffffffffffffffffffffffffffffffffffffffffffff8381831617835250505050610922565b50565b6107e583838360405160240161076393929190610d84565b6040516020818303038152906040527fe0e9ad4f000000000000000000000000000000000000000000000000000000007bffffffffffffffffffffffffffffffffffffffffffffffffffffffff19166020820180517bffffffffffffffffffffffffffffffffffffffffffffffffffffffff8381831617835250505050610922565b505050565b6108828282604051602401610800929190610d54565b6040516020818303038152906040527f319af333000000000000000000000000000000000000000000000000000000007bffffffffffffffffffffffffffffffffffffffffffffffffffffffff19166020820180517bffffffffffffffffffffffffffffffffffffffffffffffffffffffff8381831617835250505050610922565b5050565b61091e828260405160240161089c929190610dc9565b6040516020818303038152906040527f9710a9d0000000000000000000000000000000000000000000000000000000007bffffffffffffffffffffffffffffffffffffffffffffffffffffffff19166020820180517bffffffffffffffffffffffffffffffffffffffffffffffffffffffff8381831617835250505050610922565b5050565b60008151905060006a636f6e736f6c652e6c6f679050602083016000808483855afa5050505050565b8280546109579061104d565b90600052602060002090601f01602090048101928261097957600085556109c0565b82601f1061099257805160ff19168380011785556109c0565b828001600101855582156109c0579182015b828111156109bf5782518255916020019190600101906109a4565b5b5090506109cd91906109d1565b5090565b5b808211156109ea5760008160009055506001016109d2565b5090565b6000610a016109fc84610ed7565b610eb2565b905082815260208101848484011115610a1957600080fd5b610a2484828561100b565b509392505050565b600081359050610a3b8161129e565b92915050565b600082601f830112610a5257600080fd5b8135610a628482602086016109ee565b91505092915050565b600060208284031215610a7d57600080fd5b6000610a8b84828501610a2c565b91505092915050565b600060208284031215610aa657600080fd5b600082013567ffffffffffffffff811115610ac057600080fd5b610acc84828501610a41565b91505092915050565b6000610ae18383610c7a565b905092915050565b610af281610fcf565b82525050565b610b0181610fcf565b82525050565b6000610b1282610f18565b610b1c8185610f3b565b935083602082028501610b2e85610f08565b8060005b85811015610b6a5784840389528151610b4b8582610ad5565b9450610b5683610f2e565b925060208a01995050600181019050610b32565b50829750879550505050505092915050565b6000610b8782610f23565b610b918185610f57565b9350610ba181856020860161101a565b610baa8161119d565b840191505092915050565b6000610bc082610f23565b610bca8185610f68565b9350610bda81856020860161101a565b610be38161119d565b840191505092915050565b6000610bfb602a83610f68565b9150610c06826111ae565b604082019050919050565b6000610c1e602383610f68565b9150610c29826111fd565b604082019050919050565b6000610c41600083610f4c565b9150610c4c8261124c565b600082019050919050565b6000610c64602d83610f68565b9150610c6f8261124f565b604082019050919050565b6000608083016000830151610c926000860182610ae9565b5060208301518482036020860152610caa8282610b7c565b9150506040830151610cbf6040860182610cdd565b506060830151610cd26060860182610cdd565b508091505092915050565b610ce681611001565b82525050565b610cf581611001565b82525050565b6000610d0682610c34565b9150819050919050565b60006020820190508181036000830152610d2a8184610b07565b905092915050565b60006020820190508181036000830152610d4c8184610bb5565b905092915050565b60006040820190508181036000830152610d6e8185610bb5565b9050610d7d6020830184610af8565b9392505050565b60006060820190508181036000830152610d9e8186610bb5565b9050610dad6020830185610af8565b8181036040830152610dbf8184610bb5565b9050949350505050565b60006040820190508181036000830152610de38185610bb5565b9050610df26020830184610cec565b9392505050565b60006020820190508181036000830152610e1281610bee565b9050919050565b60006020820190508181036000830152610e3281610c11565b9050919050565b60006020820190508181036000830152610e5281610c57565b9050919050565b6000602082019050610e6e6000830184610cec565b92915050565b6000606082019050610e896000830186610cec565b610e966020830185610cec565b8181036040830152610ea88184610bb5565b9050949350505050565b6000610ebc610ecd565b9050610ec8828261107f565b919050565b6000604051905090565b600067ffffffffffffffff821115610ef257610ef161116e565b5b610efb8261119d565b9050602081019050919050565b6000819050602082019050919050565b600081519050919050565b600081519050919050565b6000602082019050919050565b600082825260208201905092915050565b600081905092915050565b600082825260208201905092915050565b600082825260208201905092915050565b6000610f8482611001565b9150610f8f83611001565b9250827fffffffffffffffffffffffffffffffffffffffffffffffffffffffffffffffff03821115610fc457610fc36110e1565b5b828201905092915050565b6000610fda82610fe1565b9050919050565b600073ffffffffffffffffffffffffffffffffffffffff82169050919050565b6000819050919050565b82818337600083830152505050565b60005b8381101561103857808201518184015260208101905061101d565b83811115611047576000848401525b50505050565b6000600282049050600182168061106557607f821691505b602082108114156110795761107861113f565b5b50919050565b6110888261119d565b810181811067ffffffffffffffff821117156110a7576110a661116e565b5b80604052505050565b60006110bb82611001565b91506110c683611001565b9250826110d6576110d5611110565b5b828206905092915050565b7f4e487b7100000000000000000000000000000000000000000000000000000000600052601160045260246000fd5b7f4e487b7100000000000000000000000000000000000000000000000000000000600052601260045260246000fd5b7f4e487b7100000000000000000000000000000000000000000000000000000000600052602260045260246000fd5b7f4e487b7100000000000000000000000000000000000000000000000000000000600052604160045260246000fd5b6000601f19601f8301169050919050565b7f4661696c656420746f207769746864726177206d6f6e65792066726f6d20746860008201527f6520636f6e747261637400000000000000000000000000000000000000000000602082015250565b7f57616974203330207365636f6e6473206265666f726520616e6f74686572207760008201527f6176650000000000000000000000000000000000000000000000000000000000602082015250565b50565b7f596f752061726520747279696e6720746f207769746864726177206d6f72652060008201527f7468616e20796f75206861766500000000000000000000000000000000000000602082015250565b6112a781610fcf565b81146112b257600080fd5b5056fea2646970667358221220196c4da421facf959724fbace9f9a1bbea7194d080051adb343e1ea6b020ee9964736f6c63430008040033",
  "linkReferences": {},
  "deployedLinkReferences": {}
}