{
  "_format": "hh-sol-artifact-1",
  "contractName": "WavePortal",
  "sourceName": "contracts/WavePortal.sol",
  "abi": [
    {
      "inputs": [],
      "stateMutability": "payable",
      "type": "constructor"
    },
    {
      "anonymous": false,
      "inputs": [
        {
          "indexed": true,
          "internalType": "address",
          "name": "from",
          "type": "address"
        },
        {
          "indexed": false,
          "internalType": "uint256",
          "name": "timestamp",
          "type": "uint256"
        },
        {
          "indexed": false,
          "internalType": "string",
          "name": "message",
          "type": "string"
        }
      ],
      "name": "newWave",
      "type": "event"
    },
    {
      "inputs": [],
      "name": "getTotalWaves",
      "outputs": [
        {
          "internalType": "uint256",
          "name": "",
          "type": "uint256"
        }
      ],
      "stateMutability": "view",
      "type": "function"
    },
    {
      "inputs": [],
      "name": "getWaves",
      "outputs": [
        {
          "components": [
            {
              "internalType": "address",
              "name": "waver",
              "type": "address"
            },
            {
              "internalType": "string",
              "name": "message",
              "type": "string"
            },
            {
              "internalType": "uint256",
              "name": "timestamp",
              "type": "uint256"
            }
          ],
          "internalType": "struct WavePortal.Wave[]",
          "name": "",
          "type": "tuple[]"
        }
      ],
      "stateMutability": "view",
      "type": "function"
    },
    {
      "inputs": [
        {
          "internalType": "string",
          "name": "_message",
          "type": "string"
        }
      ],
      "name": "wave",
      "outputs": [],
      "stateMutability": "nonpayable",
      "type": "function"
    }
  ],
  "bytecode": "0x60806040526200004f6040518060400160405280601e81526020017f4c65747320676f6f6f6f6f2e204d7920666972737420636f6e747261637400008152506200005560201b620004b41760201c565b620001e9565b620000f5816040516024016200006c919062000162565b6040516020818303038152906040527f41304fac000000000000000000000000000000000000000000000000000000007bffffffffffffffffffffffffffffffffffffffffffffffffffffffff19166020820180517bffffffffffffffffffffffffffffffffffffffffffffffffffffffff8381831617835250505050620000f860201b60201c565b50565b60008151905060006a636f6e736f6c652e6c6f679050602083016000808483855afa5050505050565b60006200012e8262000186565b6200013a818562000191565b93506200014c818560208601620001a2565b6200015781620001d8565b840191505092915050565b600060208201905081810360008301526200017e818462000121565b905092915050565b600081519050919050565b600082825260208201905092915050565b60005b83811015620001c2578082015181840152602081019050620001a5565b83811115620001d2576000848401525b50505050565b6000601f19601f8301169050919050565b610eb980620001f96000396000f3fe608060405234801561001057600080fd5b50600436106100415760003560e01c8063449d46c0146100465780639a2cdc0814610062578063a9d42f7e14610080575b600080fd5b610060600480360381019061005b91906107bc565b61009e565b005b61006a610318565b6040516100779190610afb565b60405180910390f35b610088610363565b6040516100959190610a02565b60405180910390f35b60016000808282546100b09190610c0d565b925050819055506100f76040518060400160405280600881526020017f2573207761766564000000000000000000000000000000000000000000000000815250338361054d565b600060405180606001604052803373ffffffffffffffffffffffffffffffffffffffff168152602001838152602001428152509050600181908060018154018082558091505060019003906000526020600020906003020160009091909190915060008201518160000160006101000a81548173ffffffffffffffffffffffffffffffffffffffff021916908373ffffffffffffffffffffffffffffffffffffffff16021790555060208201518160010190805190602001906101bb9291906106b1565b506040820151816002015550503373ffffffffffffffffffffffffffffffffffffffff167f827fc0b1433d32e3710239670a4c525416496a64d64f2374a5e4ea595c0738c64284604051610210929190610b16565b60405180910390a26000655af3107a4000905047811115610266576040517f08c379a000000000000000000000000000000000000000000000000000000000815260040161025d90610adb565b60405180910390fd5b60003373ffffffffffffffffffffffffffffffffffffffff168260405161028c906109ed565b60006040518083038185875af1925050503d80600081146102c9576040519150601f19603f3d011682016040523d82523d6000602084013e6102ce565b606091505b5050905080610312576040517f08c379a000000000000000000000000000000000000000000000000000000000815260040161030990610abb565b60405180910390fd5b50505050565b600061035b6040518060400160405280601681526020017f5765206861766520256420746f74616c207761766573000000000000000000008152506000546105ec565b600054905090565b60606001805480602002602001604051908101604052809291908181526020016000905b828210156104ab57838290600052602060002090600302016040518060600160405290816000820160009054906101000a900473ffffffffffffffffffffffffffffffffffffffff1673ffffffffffffffffffffffffffffffffffffffff1673ffffffffffffffffffffffffffffffffffffffff16815260200160018201805461041090610ce1565b80601f016020809104026020016040519081016040528092919081815260200182805461043c90610ce1565b80156104895780601f1061045e57610100808354040283529160200191610489565b820191906000526020600020905b81548152906001019060200180831161046c57829003601f168201915b5050505050815260200160028201548152505081526020019060010190610387565b50505050905090565b61054a816040516024016104c89190610a24565b6040516020818303038152906040527f41304fac000000000000000000000000000000000000000000000000000000007bffffffffffffffffffffffffffffffffffffffffffffffffffffffff19166020820180517bffffffffffffffffffffffffffffffffffffffffffffffffffffffff8381831617835250505050610688565b50565b6105e783838360405160240161056593929190610a46565b6040516020818303038152906040527fe0e9ad4f000000000000000000000000000000000000000000000000000000007bffffffffffffffffffffffffffffffffffffffffffffffffffffffff19166020820180517bffffffffffffffffffffffffffffffffffffffffffffffffffffffff8381831617835250505050610688565b505050565b6106848282604051602401610602929190610a8b565b6040516020818303038152906040527f9710a9d0000000000000000000000000000000000000000000000000000000007bffffffffffffffffffffffffffffffffffffffffffffffffffffffff19166020820180517bffffffffffffffffffffffffffffffffffffffffffffffffffffffff8381831617835250505050610688565b5050565b60008151905060006a636f6e736f6c652e6c6f679050602083016000808483855afa5050505050565b8280546106bd90610ce1565b90600052602060002090601f0160209004810192826106df5760008555610726565b82601f106106f857805160ff1916838001178555610726565b82800160010185558215610726579182015b8281111561072557825182559160200191906001019061070a565b5b5090506107339190610737565b5090565b5b80821115610750576000816000905550600101610738565b5090565b600061076761076284610b6b565b610b46565b90508281526020810184848401111561077f57600080fd5b61078a848285610c9f565b509392505050565b600082601f8301126107a357600080fd5b81356107b3848260208601610754565b91505092915050565b6000602082840312156107ce57600080fd5b600082013567ffffffffffffffff8111156107e857600080fd5b6107f484828501610792565b91505092915050565b6000610809838361097f565b905092915050565b61081a81610c63565b82525050565b61082981610c63565b82525050565b600061083a82610bac565b6108448185610bcf565b93508360208202850161085685610b9c565b8060005b85811015610892578484038952815161087385826107fd565b945061087e83610bc2565b925060208a0199505060018101905061085a565b50829750879550505050505092915050565b60006108af82610bb7565b6108b98185610beb565b93506108c9818560208601610cae565b6108d281610dd1565b840191505092915050565b60006108e882610bb7565b6108f28185610bfc565b9350610902818560208601610cae565b61090b81610dd1565b840191505092915050565b6000610923602a83610bfc565b915061092e82610de2565b604082019050919050565b6000610946600083610be0565b915061095182610e31565b600082019050919050565b6000610969602d83610bfc565b915061097482610e34565b604082019050919050565b60006060830160008301516109976000860182610811565b50602083015184820360208601526109af82826108a4565b91505060408301516109c460408601826109cf565b508091505092915050565b6109d881610c95565b82525050565b6109e781610c95565b82525050565b60006109f882610939565b9150819050919050565b60006020820190508181036000830152610a1c818461082f565b905092915050565b60006020820190508181036000830152610a3e81846108dd565b905092915050565b60006060820190508181036000830152610a6081866108dd565b9050610a6f6020830185610820565b8181036040830152610a8181846108dd565b9050949350505050565b60006040820190508181036000830152610aa581856108dd565b9050610ab460208301846109de565b9392505050565b60006020820190508181036000830152610ad481610916565b9050919050565b60006020820190508181036000830152610af48161095c565b9050919050565b6000602082019050610b1060008301846109de565b92915050565b6000604082019050610b2b60008301856109de565b8181036020830152610b3d81846108dd565b90509392505050565b6000610b50610b61565b9050610b5c8282610d13565b919050565b6000604051905090565b600067ffffffffffffffff821115610b8657610b85610da2565b5b610b8f82610dd1565b9050602081019050919050565b6000819050602082019050919050565b600081519050919050565b600081519050919050565b6000602082019050919050565b600082825260208201905092915050565b600081905092915050565b600082825260208201905092915050565b600082825260208201905092915050565b6000610c1882610c95565b9150610c2383610c95565b9250827fffffffffffffffffffffffffffffffffffffffffffffffffffffffffffffffff03821115610c5857610c57610d44565b5b828201905092915050565b6000610c6e82610c75565b9050919050565b600073ffffffffffffffffffffffffffffffffffffffff82169050919050565b6000819050919050565b82818337600083830152505050565b60005b83811015610ccc578082015181840152602081019050610cb1565b83811115610cdb576000848401525b50505050565b60006002820490506001821680610cf957607f821691505b60208210811415610d0d57610d0c610d73565b5b50919050565b610d1c82610dd1565b810181811067ffffffffffffffff82111715610d3b57610d3a610da2565b5b80604052505050565b7f4e487b7100000000000000000000000000000000000000000000000000000000600052601160045260246000fd5b7f4e487b7100000000000000000000000000000000000000000000000000000000600052602260045260246000fd5b7f4e487b7100000000000000000000000000000000000000000000000000000000600052604160045260246000fd5b6000601f19601f8301169050919050565b7f4661696c656420746f207769746864726177206d6f6e65792066726f6d20746860008201527f6520636f6e747261637400000000000000000000000000000000000000000000602082015250565b50565b7f596f752061726520747279696e6720746f207769746864726177206d6f72652060008201527f7468616e20796f7520686176650000000000000000000000000000000000000060208201525056fea26469706673582212206c798c578716d4f39100637b56fa5fb07275c4bda5817ce39692fba4f9df71a864736f6c63430008040033",
  "linkReferences": {},
  "deployedLinkReferences": {}
}