{
  "_format": "hh-sol-artifact-1",
  "contractName": "WavePortal",
  "sourceName": "contracts/WavePortal.sol",
  "abi": [
    {
      "inputs": [],
      "stateMutability": "nonpayable",
      "type": "constructor"
    },
    {
      "inputs": [],
      "name": "getTotalWaves",
      "outputs": [
        {
          "internalType": "uint256",
          "name": "",
          "type": "uint256"
        }
      ],
      "stateMutability": "view",
      "type": "function"
    },
    {
      "inputs": [
        {
          "internalType": "address",
          "name": "",
          "type": "address"
        }
      ],
      "name": "hmm",
      "outputs": [
        {
          "internalType": "address",
          "name": "addr",
          "type": "address"
        },
        {
          "internalType": "uint256",
          "name": "waved_at",
          "type": "uint256"
        }
      ],
      "stateMutability": "view",
      "type": "function"
    },
    {
      "inputs": [],
      "name": "wave",
      "outputs": [],
      "stateMutability": "nonpayable",
      "type": "function"
    }
  ],
  "bytecode": "0x608060405234801561001057600080fd5b506100596040518060400160405280601e81526020017f4c65747320676f6f6f6f6f2e204d7920666972737420636f6e7472616374000081525061005e60201b6102cb1760201c565b6101e1565b6100fa81604051602401610072919061015f565b6040516020818303038152906040527f41304fac000000000000000000000000000000000000000000000000000000007bffffffffffffffffffffffffffffffffffffffffffffffffffffffff19166020820180517bffffffffffffffffffffffffffffffffffffffffffffffffffffffff83818316178352505050506100fd60201b60201c565b50565b60008151905060006a636f6e736f6c652e6c6f679050602083016000808483855afa5050505050565b600061013182610181565b61013b818561018c565b935061014b81856020860161019d565b610154816101d0565b840191505092915050565b600060208201905081810360008301526101798184610126565b905092915050565b600081519050919050565b600082825260208201905092915050565b60005b838110156101bb5780820151818401526020810190506101a0565b838111156101ca576000848401525b50505050565b6000601f19601f8301169050919050565b61078e806101f06000396000f3fe608060405234801561001057600080fd5b50600436106100415760003560e01c80636fe15b44146100465780639a2cdc0814610050578063cd1ec3be1461006e575b600080fd5b61004e61009f565b005b61005861023c565b6040516100659190610605565b60405180910390f35b610088600480360381019061008391906104da565b610287565b60405161009692919061055a565b60405180910390f35b60016000808282546100b1919061063c565b92505081905550600060405180604001604052803373ffffffffffffffffffffffffffffffffffffffff168152602001428152509050600181908060018154018082558091505060019003906000526020600020906002020160009091909190915060008201518160000160006101000a81548173ffffffffffffffffffffffffffffffffffffffff021916908373ffffffffffffffffffffffffffffffffffffffff16021790555060208201518160010155505080600260003373ffffffffffffffffffffffffffffffffffffffff1673ffffffffffffffffffffffffffffffffffffffff16815260200190815260200160002060008201518160000160006101000a81548173ffffffffffffffffffffffffffffffffffffffff021916908373ffffffffffffffffffffffffffffffffffffffff160217905550602082015181600101559050506102396040518060400160405280600881526020017f257320776176656400000000000000000000000000000000000000000000000081525033610364565b50565b600061027f6040518060400160405280601681526020017f5765206861766520256420746f74616c20776176657300000000000000000000815250600054610400565b600054905090565b60026020528060005260406000206000915090508060000160009054906101000a900473ffffffffffffffffffffffffffffffffffffffff16908060010154905082565b610361816040516024016102df9190610583565b6040516020818303038152906040527f41304fac000000000000000000000000000000000000000000000000000000007bffffffffffffffffffffffffffffffffffffffffffffffffffffffff19166020820180517bffffffffffffffffffffffffffffffffffffffffffffffffffffffff838183161783525050505061049c565b50565b6103fc828260405160240161037a9291906105a5565b6040516020818303038152906040527f319af333000000000000000000000000000000000000000000000000000000007bffffffffffffffffffffffffffffffffffffffffffffffffffffffff19166020820180517bffffffffffffffffffffffffffffffffffffffffffffffffffffffff838183161783525050505061049c565b5050565b61049882826040516024016104169291906105d5565b6040516020818303038152906040527f9710a9d0000000000000000000000000000000000000000000000000000000007bffffffffffffffffffffffffffffffffffffffffffffffffffffffff19166020820180517bffffffffffffffffffffffffffffffffffffffffffffffffffffffff838183161783525050505061049c565b5050565b60008151905060006a636f6e736f6c652e6c6f679050602083016000808483855afa5050505050565b6000813590506104d481610741565b92915050565b6000602082840312156104ec57600080fd5b60006104fa848285016104c5565b91505092915050565b61050c81610692565b82525050565b600061051d82610620565b610527818561062b565b93506105378185602086016106ce565b61054081610730565b840191505092915050565b610554816106c4565b82525050565b600060408201905061056f6000830185610503565b61057c602083018461054b565b9392505050565b6000602082019050818103600083015261059d8184610512565b905092915050565b600060408201905081810360008301526105bf8185610512565b90506105ce6020830184610503565b9392505050565b600060408201905081810360008301526105ef8185610512565b90506105fe602083018461054b565b9392505050565b600060208201905061061a600083018461054b565b92915050565b600081519050919050565b600082825260208201905092915050565b6000610647826106c4565b9150610652836106c4565b9250827fffffffffffffffffffffffffffffffffffffffffffffffffffffffffffffffff0382111561068757610686610701565b5b828201905092915050565b600061069d826106a4565b9050919050565b600073ffffffffffffffffffffffffffffffffffffffff82169050919050565b6000819050919050565b60005b838110156106ec5780820151818401526020810190506106d1565b838111156106fb576000848401525b50505050565b7f4e487b7100000000000000000000000000000000000000000000000000000000600052601160045260246000fd5b6000601f19601f8301169050919050565b61074a81610692565b811461075557600080fd5b5056fea264697066735822122047fc9658466b55b7b886938bff616ae7496b48e0ded6c18af83e0d28dd77375064736f6c63430008040033",
  "linkReferences": {},
  "deployedLinkReferences": {}
}